{
  "_format": "hh-sol-artifact-1",
  "contractName": "AegisStayBadge",
  "sourceName": "contracts/AegisStayBadge.sol",
  "abi": [
    {
      "inputs": [],
      "stateMutability": "nonpayable",
      "type": "constructor"
    },
    {
      "anonymous": false,
      "inputs": [
        {
          "indexed": true,
          "internalType": "address",
          "name": "owner",
          "type": "address"
        },
        {
          "indexed": true,
          "internalType": "address",
          "name": "approved",
          "type": "address"
        },
        {
          "indexed": true,
          "internalType": "uint256",
          "name": "tokenId",
          "type": "uint256"
        }
      ],
      "name": "Approval",
      "type": "event"
    },
    {
      "anonymous": false,
      "inputs": [
        {
          "indexed": true,
          "internalType": "address",
          "name": "owner",
          "type": "address"
        },
        {
          "indexed": true,
          "internalType": "address",
          "name": "operator",
          "type": "address"
        },
        {
          "indexed": false,
          "internalType": "bool",
          "name": "approved",
          "type": "bool"
        }
      ],
      "name": "ApprovalForAll",
      "type": "event"
    },
    {
      "anonymous": false,
      "inputs": [
        {
          "indexed": false,
          "internalType": "address",
          "name": "responder",
          "type": "address"
        },
        {
          "indexed": false,
          "internalType": "uint256",
          "name": "tokenId",
          "type": "uint256"
        },
        {
          "indexed": false,
          "internalType": "string",
          "name": "uri",
          "type": "string"
        }
      ],
      "name": "BadgeIssued",
      "type": "event"
    },
    {
      "anonymous": false,
      "inputs": [
        {
          "indexed": false,
          "internalType": "uint256",
          "name": "_fromTokenId",
          "type": "uint256"
        },
        {
          "indexed": false,
          "internalType": "uint256",
          "name": "_toTokenId",
          "type": "uint256"
        }
      ],
      "name": "BatchMetadataUpdate",
      "type": "event"
    },
    {
      "anonymous": false,
      "inputs": [
        {
          "indexed": false,
          "internalType": "address",
          "name": "reporter",
          "type": "address"
        },
        {
          "indexed": false,
          "internalType": "uint256",
          "name": "lat",
          "type": "uint256"
        },
        {
          "indexed": false,
          "internalType": "uint256",
          "name": "lng",
          "type": "uint256"
        },
        {
          "indexed": false,
          "internalType": "string",
          "name": "mediaHash",
          "type": "string"
        }
      ],
      "name": "IncidentReported",
      "type": "event"
    },
    {
      "anonymous": false,
      "inputs": [
        {
          "indexed": false,
          "internalType": "uint256",
          "name": "_tokenId",
          "type": "uint256"
        }
      ],
      "name": "MetadataUpdate",
      "type": "event"
    },
    {
      "anonymous": false,
      "inputs": [
        {
          "indexed": true,
          "internalType": "address",
          "name": "previousOwner",
          "type": "address"
        },
        {
          "indexed": true,
          "internalType": "address",
          "name": "newOwner",
          "type": "address"
        }
      ],
      "name": "OwnershipTransferred",
      "type": "event"
    },
    {
      "anonymous": false,
      "inputs": [
        {
          "indexed": false,
          "internalType": "address",
          "name": "responder",
          "type": "address"
        },
        {
          "indexed": false,
          "internalType": "uint256",
          "name": "points",
          "type": "uint256"
        }
      ],
      "name": "ReputationRewarded",
      "type": "event"
    },
    {
      "anonymous": false,
      "inputs": [
        {
          "indexed": true,
          "internalType": "address",
          "name": "from",
          "type": "address"
        },
        {
          "indexed": true,
          "internalType": "address",
          "name": "to",
          "type": "address"
        },
        {
          "indexed": true,
          "internalType": "uint256",
          "name": "tokenId",
          "type": "uint256"
        }
      ],
      "name": "Transfer",
      "type": "event"
    },
    {
      "inputs": [
        {
          "internalType": "address",
          "name": "to",
          "type": "address"
        },
        {
          "internalType": "uint256",
          "name": "tokenId",
          "type": "uint256"
        }
      ],
      "name": "approve",
      "outputs": [],
      "stateMutability": "nonpayable",
      "type": "function"
    },
    {
      "inputs": [
        {
          "internalType": "address",
          "name": "owner",
          "type": "address"
        }
      ],
      "name": "balanceOf",
      "outputs": [
        {
          "internalType": "uint256",
          "name": "",
          "type": "uint256"
        }
      ],
      "stateMutability": "view",
      "type": "function"
    },
    {
      "inputs": [
        {
          "internalType": "uint256",
          "name": "tokenId",
          "type": "uint256"
        }
      ],
      "name": "getApproved",
      "outputs": [
        {
          "internalType": "address",
          "name": "",
          "type": "address"
        }
      ],
      "stateMutability": "view",
      "type": "function"
    },
    {
      "inputs": [
        {
          "internalType": "address",
          "name": "owner",
          "type": "address"
        },
        {
          "internalType": "address",
          "name": "operator",
          "type": "address"
        }
      ],
      "name": "isApprovedForAll",
      "outputs": [
        {
          "internalType": "bool",
          "name": "",
          "type": "bool"
        }
      ],
      "stateMutability": "view",
      "type": "function"
    },
    {
      "inputs": [],
      "name": "name",
      "outputs": [
        {
          "internalType": "string",
          "name": "",
          "type": "string"
        }
      ],
      "stateMutability": "view",
      "type": "function"
    },
    {
      "inputs": [],
      "name": "owner",
      "outputs": [
        {
          "internalType": "address",
          "name": "",
          "type": "address"
        }
      ],
      "stateMutability": "view",
      "type": "function"
    },
    {
      "inputs": [
        {
          "internalType": "uint256",
          "name": "tokenId",
          "type": "uint256"
        }
      ],
      "name": "ownerOf",
      "outputs": [
        {
          "internalType": "address",
          "name": "",
          "type": "address"
        }
      ],
      "stateMutability": "view",
      "type": "function"
    },
    {
      "inputs": [],
      "name": "renounceOwnership",
      "outputs": [],
      "stateMutability": "nonpayable",
      "type": "function"
    },
    {
      "inputs": [
        {
          "internalType": "address",
          "name": "",
          "type": "address"
        }
      ],
      "name": "reputationPoints",
      "outputs": [
        {
          "internalType": "uint256",
          "name": "",
          "type": "uint256"
        }
      ],
      "stateMutability": "view",
      "type": "function"
    },
    {
      "inputs": [
        {
          "internalType": "uint256",
          "name": "lat",
          "type": "uint256"
        },
        {
          "internalType": "uint256",
          "name": "lng",
          "type": "uint256"
        },
        {
          "internalType": "string",
          "name": "mediaHash",
          "type": "string"
        },
        {
          "internalType": "uint256",
          "name": "points",
          "type": "uint256"
        },
        {
          "internalType": "string",
          "name": "tokenURI",
          "type": "string"
        }
      ],
      "name": "resolveIncidentAndReward",
      "outputs": [],
      "stateMutability": "nonpayable",
      "type": "function"
    },
    {
      "inputs": [
        {
          "internalType": "address",
          "name": "from",
          "type": "address"
        },
        {
          "internalType": "address",
          "name": "to",
          "type": "address"
        },
        {
          "internalType": "uint256",
          "name": "tokenId",
          "type": "uint256"
        }
      ],
      "name": "safeTransferFrom",
      "outputs": [],
      "stateMutability": "nonpayable",
      "type": "function"
    },
    {
      "inputs": [
        {
          "internalType": "address",
          "name": "from",
          "type": "address"
        },
        {
          "internalType": "address",
          "name": "to",
          "type": "address"
        },
        {
          "internalType": "uint256",
          "name": "tokenId",
          "type": "uint256"
        },
        {
          "internalType": "bytes",
          "name": "data",
          "type": "bytes"
        }
      ],
      "name": "safeTransferFrom",
      "outputs": [],
      "stateMutability": "nonpayable",
      "type": "function"
    },
    {
      "inputs": [
        {
          "internalType": "address",
          "name": "operator",
          "type": "address"
        },
        {
          "internalType": "bool",
          "name": "approved",
          "type": "bool"
        }
      ],
      "name": "setApprovalForAll",
      "outputs": [],
      "stateMutability": "nonpayable",
      "type": "function"
    },
    {
      "inputs": [
        {
          "internalType": "bytes4",
          "name": "interfaceId",
          "type": "bytes4"
        }
      ],
      "name": "supportsInterface",
      "outputs": [
        {
          "internalType": "bool",
          "name": "",
          "type": "bool"
        }
      ],
      "stateMutability": "view",
      "type": "function"
    },
    {
      "inputs": [],
      "name": "symbol",
      "outputs": [
        {
          "internalType": "string",
          "name": "",
          "type": "string"
        }
      ],
      "stateMutability": "view",
      "type": "function"
    },
    {
      "inputs": [
        {
          "internalType": "uint256",
          "name": "tokenId",
          "type": "uint256"
        }
      ],
      "name": "tokenURI",
      "outputs": [
        {
          "internalType": "string",
          "name": "",
          "type": "string"
        }
      ],
      "stateMutability": "view",
      "type": "function"
    },
    {
      "inputs": [
        {
          "internalType": "address",
          "name": "from",
          "type": "address"
        },
        {
          "internalType": "address",
          "name": "to",
          "type": "address"
        },
        {
          "internalType": "uint256",
          "name": "tokenId",
          "type": "uint256"
        }
      ],
      "name": "transferFrom",
      "outputs": [],
      "stateMutability": "nonpayable",
      "type": "function"
    },
    {
      "inputs": [
        {
          "internalType": "address",
          "name": "newOwner",
          "type": "address"
        }
      ],
      "name": "transferOwnership",
      "outputs": [],
      "stateMutability": "nonpayable",
      "type": "function"
    },
    {
      "inputs": [
        {
          "internalType": "address",
          "name": "",
          "type": "address"
        }
      ],
      "name": "verifiedResponders",
      "outputs": [
        {
          "internalType": "bool",
          "name": "",
          "type": "bool"
        }
      ],
      "stateMutability": "view",
      "type": "function"
    }
  ],
  "bytecode": "0x60806040523480156200001157600080fd5b506040518060400160405280601481526020017f416567697353746179204865726f2042616467650000000000000000000000008152506040518060400160405280600381526020017f414842000000000000000000000000000000000000000000000000000000000081525081600090816200008f919062000412565b508060019081620000a1919062000412565b505050620000c4620000b8620000ca60201b60201c565b620000d260201b60201c565b620004f9565b600033905090565b6000600760009054906101000a900473ffffffffffffffffffffffffffffffffffffffff16905081600760006101000a81548173ffffffffffffffffffffffffffffffffffffffff021916908373ffffffffffffffffffffffffffffffffffffffff1602179055508173ffffffffffffffffffffffffffffffffffffffff168173ffffffffffffffffffffffffffffffffffffffff167f8be0079c531659141344cd1fd0a4f28419497f9722a3daafe3b4186f6b6457e060405160405180910390a35050565b600081519050919050565b7f4e487b7100000000000000000000000000000000000000000000000000000000600052604160045260246000fd5b7f4e487b7100000000000000000000000000000000000000000000000000000000600052602260045260246000fd5b600060028204905060018216806200021a57607f821691505b60208210810362000230576200022f620001d2565b5b50919050565b60008190508160005260206000209050919050565b60006020601f8301049050919050565b600082821b905092915050565b6000600883026200029a7fffffffffffffffffffffffffffffffffffffffffffffffffffffffffffffffff826200025b565b620002a686836200025b565b95508019841693508086168417925050509392505050565b6000819050919050565b6000819050919050565b6000620002f3620002ed620002e784620002be565b620002c8565b620002be565b9050919050565b6000819050919050565b6200030f83620002d2565b620003276200031e82620002fa565b84845462000268565b825550505050565b600090565b6200033e6200032f565b6200034b81848462000304565b505050565b5b8181101562000373576200036760008262000334565b60018101905062000351565b5050565b601f821115620003c2576200038c8162000236565b62000397846200024b565b81016020851015620003a7578190505b620003bf620003b6856200024b565b83018262000350565b50505b505050565b600082821c905092915050565b6000620003e760001984600802620003c7565b1980831691505092915050565b6000620004028383620003d4565b9150826002028217905092915050565b6200041d8262000198565b67ffffffffffffffff811115620004395762000438620001a3565b5b62000445825462000201565b6200045282828562000377565b600060209050601f8311600181146200048a576000841562000475578287015190505b620004818582620003f4565b865550620004f1565b601f1984166200049a8662000236565b60005b82811015620004c4578489015182556001820191506020850194506020810190506200049d565b86831015620004e45784890151620004e0601f891682620003d4565b8355505b6001600288020188555050505b505050505050565b6132c280620005096000396000f3fe608060405234801561001057600080fd5b50600436106101215760003560e01c806370a08231116100ad578063b88d4fde11610071578063b88d4fde14610306578063c87b56dd14610322578063e985e9c514610352578063f2fde38b14610382578063ff80f7bd1461039e57610121565b806370a0823114610274578063715018a6146102a45780638da5cb5b146102ae57806395d89b41146102cc578063a22cb465146102ea57610121565b806323b872dd116100f457806323b872dd146101c057806326ede890146101dc5780633e8d826e1461020c57806342842e0e146102285780636352211e1461024457610121565b806301ffc9a71461012657806306fdde0314610156578063081812fc14610174578063095ea7b3146101a4575b600080fd5b610140600480360381019061013b9190611e92565b6103ce565b60405161014d9190611eda565b60405180910390f35b61015e61042f565b60405161016b9190611f85565b60405180910390f35b61018e60048036038101906101899190611fdd565b6104c1565b60405161019b919061204b565b60405180910390f35b6101be60048036038101906101b99190612092565b610507565b005b6101da60048036038101906101d591906120d2565b61061e565b005b6101f660048036038101906101f19190612125565b61067e565b6040516102039190611eda565b60405180910390f35b61022660048036038101906102219190612287565b61069e565b005b610242600480360381019061023d91906120d2565b610838565b005b61025e60048036038101906102599190611fdd565b610858565b60405161026b919061204b565b60405180910390f35b61028e60048036038101906102899190612125565b6108de565b60405161029b9190612349565b60405180910390f35b6102ac610995565b005b6102b66109a9565b6040516102c3919061204b565b60405180910390f35b6102d46109d3565b6040516102e19190611f85565b60405180910390f35b61030460048036038101906102ff9190612390565b610a65565b005b610320600480360381019061031b9190612471565b610a7b565b005b61033c60048036038101906103379190611fdd565b610add565b6040516103499190611f85565b60405180910390f35b61036c600480360381019061036791906124f4565b610bef565b6040516103799190611eda565b60405180910390f35b61039c60048036038101906103979190612125565b610c83565b005b6103b860048036038101906103b39190612125565b610d06565b6040516103c59190612349565b60405180910390f35b6000634906490660e01b7bffffffffffffffffffffffffffffffffffffffffffffffffffffffff1916827bffffffffffffffffffffffffffffffffffffffffffffffffffffffff19161480610428575061042782610d1e565b5b9050919050565b60606000805461043e90612563565b80601f016020809104026020016040519081016040528092919081815260200182805461046a90612563565b80156104b75780601f1061048c576101008083540402835291602001916104b7565b820191906000526020600020905b81548152906001019060200180831161049a57829003601f168201915b5050505050905090565b60006104cc82610e00565b6004600083815260200190815260200160002060009054906101000a900473ffffffffffffffffffffffffffffffffffffffff169050919050565b600061051282610858565b90508073ffffffffffffffffffffffffffffffffffffffff168373ffffffffffffffffffffffffffffffffffffffff1603610582576040517f08c379a000000000000000000000000000000000000000000000000000000000815260040161057990612606565b60405180910390fd5b8073ffffffffffffffffffffffffffffffffffffffff166105a1610e4b565b73ffffffffffffffffffffffffffffffffffffffff1614806105d057506105cf816105ca610e4b565b610bef565b5b61060f576040517f08c379a000000000000000000000000000000000000000000000000000000000815260040161060690612698565b60405180910390fd5b6106198383610e53565b505050565b61062f610629610e4b565b82610f0c565b61066e576040517f08c379a00000000000000000000000000000000000000000000000000000000081526004016106659061272a565b60405180910390fd5b610679838383610fa1565b505050565b600a6020528060005260406000206000915054906101000a900460ff1681565b7f68fc3e82d5e855b7e687d26872747a99814d40f62c0f9ad5853279f94f32e7c0338686866040516106d3949392919061274a565b60405180910390a181600960003373ffffffffffffffffffffffffffffffffffffffff1673ffffffffffffffffffffffffffffffffffffffff168152602001908152602001600020600082825461072a91906127c5565b925050819055506001600a60003373ffffffffffffffffffffffffffffffffffffffff1673ffffffffffffffffffffffffffffffffffffffff16815260200190815260200160002060006101000a81548160ff0219169083151502179055507f82d7a772827d19f54e730afda89099555d35944286f01a4d2ab02c2cfac5a3b533836040516107ba9291906127f9565b60405180910390a1600860008154809291906107d590612822565b9190505550600060085490506107eb338261129a565b6107f581836114b7565b7f879c7d2b55deb94dd32c475e42e46cb1b6182f7aeed60a21e2eeae0aee2b47373382846040516108289392919061286a565b60405180910390a1505050505050565b61085383838360405180602001604052806000815250610a7b565b505050565b6000806108648361155b565b9050600073ffffffffffffffffffffffffffffffffffffffff168173ffffffffffffffffffffffffffffffffffffffff16036108d5576040517f08c379a00000000000000000000000000000000000000000000000000000000081526004016108cc906128f4565b60405180910390fd5b80915050919050565b60008073ffffffffffffffffffffffffffffffffffffffff168273ffffffffffffffffffffffffffffffffffffffff160361094e576040517f08c379a000000000000000000000000000000000000000000000000000000000815260040161094590612986565b60405180910390fd5b600360008373ffffffffffffffffffffffffffffffffffffffff1673ffffffffffffffffffffffffffffffffffffffff168152602001908152602001600020549050919050565b61099d611598565b6109a76000611616565b565b6000600760009054906101000a900473ffffffffffffffffffffffffffffffffffffffff16905090565b6060600180546109e290612563565b80601f0160208091040260200160405190810160405280929190818152602001828054610a0e90612563565b8015610a5b5780601f10610a3057610100808354040283529160200191610a5b565b820191906000526020600020905b815481529060010190602001808311610a3e57829003601f168201915b5050505050905090565b610a77610a70610e4b565b83836116dc565b5050565b610a8c610a86610e4b565b83610f0c565b610acb576040517f08c379a0000000000000000000000000000000000000000000000000000000008152600401610ac29061272a565b60405180910390fd5b610ad784848484611848565b50505050565b6060610ae882610e00565b6000600660008481526020019081526020016000208054610b0890612563565b80601f0160208091040260200160405190810160405280929190818152602001828054610b3490612563565b8015610b815780601f10610b5657610100808354040283529160200191610b81565b820191906000526020600020905b815481529060010190602001808311610b6457829003601f168201915b505050505090506000610b926118a4565b90506000815103610ba7578192505050610bea565b600082511115610bdc578082604051602001610bc49291906129e2565b60405160208183030381529060405292505050610bea565b610be5846118bb565b925050505b919050565b6000600560008473ffffffffffffffffffffffffffffffffffffffff1673ffffffffffffffffffffffffffffffffffffffff16815260200190815260200160002060008373ffffffffffffffffffffffffffffffffffffffff1673ffffffffffffffffffffffffffffffffffffffff16815260200190815260200160002060009054906101000a900460ff16905092915050565b610c8b611598565b600073ffffffffffffffffffffffffffffffffffffffff168173ffffffffffffffffffffffffffffffffffffffff1603610cfa576040517f08c379a0000000000000000000000000000000000000000000000000000000008152600401610cf190612a78565b60405180910390fd5b610d0381611616565b50565b60096020528060005260406000206000915090505481565b60007f80ac58cd000000000000000000000000000000000000000000000000000000007bffffffffffffffffffffffffffffffffffffffffffffffffffffffff1916827bffffffffffffffffffffffffffffffffffffffffffffffffffffffff19161480610de957507f5b5e139f000000000000000000000000000000000000000000000000000000007bffffffffffffffffffffffffffffffffffffffffffffffffffffffff1916827bffffffffffffffffffffffffffffffffffffffffffffffffffffffff1916145b80610df95750610df882611923565b5b9050919050565b610e098161198d565b610e48576040517f08c379a0000000000000000000000000000000000000000000000000000000008152600401610e3f906128f4565b60405180910390fd5b50565b600033905090565b816004600083815260200190815260200160002060006101000a81548173ffffffffffffffffffffffffffffffffffffffff021916908373ffffffffffffffffffffffffffffffffffffffff160217905550808273ffffffffffffffffffffffffffffffffffffffff16610ec683610858565b73ffffffffffffffffffffffffffffffffffffffff167f8c5be1e5ebec7d5bd14f71427d1e84f3dd0314c0f7b2291e5b200ac8c7c3b92560405160405180910390a45050565b600080610f1883610858565b90508073ffffffffffffffffffffffffffffffffffffffff168473ffffffffffffffffffffffffffffffffffffffff161480610f5a5750610f598185610bef565b5b80610f9857508373ffffffffffffffffffffffffffffffffffffffff16610f80846104c1565b73ffffffffffffffffffffffffffffffffffffffff16145b91505092915050565b8273ffffffffffffffffffffffffffffffffffffffff16610fc182610858565b73ffffffffffffffffffffffffffffffffffffffff1614611017576040517f08c379a000000000000000000000000000000000000000000000000000000000815260040161100e90612b0a565b60405180910390fd5b600073ffffffffffffffffffffffffffffffffffffffff168273ffffffffffffffffffffffffffffffffffffffff1603611086576040517f08c379a000000000000000000000000000000000000000000000000000000000815260040161107d90612b9c565b60405180910390fd5b61109383838360016119ce565b8273ffffffffffffffffffffffffffffffffffffffff166110b382610858565b73ffffffffffffffffffffffffffffffffffffffff1614611109576040517f08c379a000000000000000000000000000000000000000000000000000000000815260040161110090612b0a565b60405180910390fd5b6004600082815260200190815260200160002060006101000a81549073ffffffffffffffffffffffffffffffffffffffff02191690556001600360008573ffffffffffffffffffffffffffffffffffffffff1673ffffffffffffffffffffffffffffffffffffffff168152602001908152602001600020600082825403925050819055506001600360008473ffffffffffffffffffffffffffffffffffffffff1673ffffffffffffffffffffffffffffffffffffffff16815260200190815260200160002060008282540192505081905550816002600083815260200190815260200160002060006101000a81548173ffffffffffffffffffffffffffffffffffffffff021916908373ffffffffffffffffffffffffffffffffffffffff160217905550808273ffffffffffffffffffffffffffffffffffffffff168473ffffffffffffffffffffffffffffffffffffffff167fddf252ad1be2c89b69c2b068fc378daa952ba7f163c4a11628f55a4df523b3ef60405160405180910390a46112958383836001611a4f565b505050565b600073ffffffffffffffffffffffffffffffffffffffff168273ffffffffffffffffffffffffffffffffffffffff1603611309576040517f08c379a000000000000000000000000000000000000000000000000000000000815260040161130090612c08565b60405180910390fd5b6113128161198d565b15611352576040517f08c379a000000000000000000000000000000000000000000000000000000000815260040161134990612c74565b60405180910390fd5b6113606000838360016119ce565b6113698161198d565b156113a9576040517f08c379a00000000000000000000000000000000000000000000000000000000081526004016113a090612c74565b60405180910390fd5b6001600360008473ffffffffffffffffffffffffffffffffffffffff1673ffffffffffffffffffffffffffffffffffffffff16815260200190815260200160002060008282540192505081905550816002600083815260200190815260200160002060006101000a81548173ffffffffffffffffffffffffffffffffffffffff021916908373ffffffffffffffffffffffffffffffffffffffff160217905550808273ffffffffffffffffffffffffffffffffffffffff16600073ffffffffffffffffffffffffffffffffffffffff167fddf252ad1be2c89b69c2b068fc378daa952ba7f163c4a11628f55a4df523b3ef60405160405180910390a46114b3600083836001611a4f565b5050565b6114c08261198d565b6114ff576040517f08c379a00000000000000000000000000000000000000000000000000000000081526004016114f690612d06565b60405180910390fd5b8060066000848152602001908152602001600020908161151f9190612ed2565b507ff8e1a15aba9398e019f0b49df1a4fde98ee17ae345cb5f6b5e2c27f5033e8ce78260405161154f9190612349565b60405180910390a15050565b60006002600083815260200190815260200160002060009054906101000a900473ffffffffffffffffffffffffffffffffffffffff169050919050565b6115a0610e4b565b73ffffffffffffffffffffffffffffffffffffffff166115be6109a9565b73ffffffffffffffffffffffffffffffffffffffff1614611614576040517f08c379a000000000000000000000000000000000000000000000000000000000815260040161160b90612ff0565b60405180910390fd5b565b6000600760009054906101000a900473ffffffffffffffffffffffffffffffffffffffff16905081600760006101000a81548173ffffffffffffffffffffffffffffffffffffffff021916908373ffffffffffffffffffffffffffffffffffffffff1602179055508173ffffffffffffffffffffffffffffffffffffffff168173ffffffffffffffffffffffffffffffffffffffff167f8be0079c531659141344cd1fd0a4f28419497f9722a3daafe3b4186f6b6457e060405160405180910390a35050565b8173ffffffffffffffffffffffffffffffffffffffff168373ffffffffffffffffffffffffffffffffffffffff160361174a576040517f08c379a00000000000000000000000000000000000000000000000000000000081526004016117419061305c565b60405180910390fd5b80600560008573ffffffffffffffffffffffffffffffffffffffff1673ffffffffffffffffffffffffffffffffffffffff16815260200190815260200160002060008473ffffffffffffffffffffffffffffffffffffffff1673ffffffffffffffffffffffffffffffffffffffff16815260200190815260200160002060006101000a81548160ff0219169083151502179055508173ffffffffffffffffffffffffffffffffffffffff168373ffffffffffffffffffffffffffffffffffffffff167f17307eab39ab6107e8899845ad3d59bd9653f200f220920489ca2b5937696c318360405161183b9190611eda565b60405180910390a3505050565b611853848484610fa1565b61185f84848484611a55565b61189e576040517f08c379a0000000000000000000000000000000000000000000000000000000008152600401611895906130ee565b60405180910390fd5b50505050565b606060405180602001604052806000815250905090565b60606118c682610e00565b60006118d06118a4565b905060008151116118f0576040518060200160405280600081525061191b565b806118fa84611bdc565b60405160200161190b9291906129e2565b6040516020818303038152906040525b915050919050565b60007f01ffc9a7000000000000000000000000000000000000000000000000000000007bffffffffffffffffffffffffffffffffffffffffffffffffffffffff1916827bffffffffffffffffffffffffffffffffffffffffffffffffffffffff1916149050919050565b60008073ffffffffffffffffffffffffffffffffffffffff166119af8361155b565b73ffffffffffffffffffffffffffffffffffffffff1614159050919050565b600073ffffffffffffffffffffffffffffffffffffffff168473ffffffffffffffffffffffffffffffffffffffff1614611a3d576040517f08c379a0000000000000000000000000000000000000000000000000000000008152600401611a349061315a565b60405180910390fd5b611a4984848484611caa565b50505050565b50505050565b6000611a768473ffffffffffffffffffffffffffffffffffffffff16611cb0565b15611bcf578373ffffffffffffffffffffffffffffffffffffffff1663150b7a02611a9f610e4b565b8786866040518563ffffffff1660e01b8152600401611ac194939291906131cf565b6020604051808303816000875af1925050508015611afd57506040513d601f19601f82011682018060405250810190611afa9190613230565b60015b611b7f573d8060008114611b2d576040519150601f19603f3d011682016040523d82523d6000602084013e611b32565b606091505b506000815103611b77576040517f08c379a0000000000000000000000000000000000000000000000000000000008152600401611b6e906130ee565b60405180910390fd5b805181602001fd5b63150b7a0260e01b7bffffffffffffffffffffffffffffffffffffffffffffffffffffffff1916817bffffffffffffffffffffffffffffffffffffffffffffffffffffffff191614915050611bd4565b600190505b949350505050565b606060006001611beb84611cd3565b01905060008167ffffffffffffffff811115611c0a57611c0961215c565b5b6040519080825280601f01601f191660200182016040528015611c3c5781602001600182028036833780820191505090505b509050600082602001820190505b600115611c9f578080600190039150507f3031323334353637383961626364656600000000000000000000000000000000600a86061a8153600a8581611c9357611c9261325d565b5b04945060008503611c4a575b819350505050919050565b50505050565b6000808273ffffffffffffffffffffffffffffffffffffffff163b119050919050565b600080600090507a184f03e93ff9f4daa797ed6e38ed64bf6a1f0100000000000000008310611d31577a184f03e93ff9f4daa797ed6e38ed64bf6a1f0100000000000000008381611d2757611d2661325d565b5b0492506040810190505b6d04ee2d6d415b85acef81000000008310611d6e576d04ee2d6d415b85acef81000000008381611d6457611d6361325d565b5b0492506020810190505b662386f26fc100008310611d9d57662386f26fc100008381611d9357611d9261325d565b5b0492506010810190505b6305f5e1008310611dc6576305f5e1008381611dbc57611dbb61325d565b5b0492506008810190505b6127108310611deb576127108381611de157611de061325d565b5b0492506004810190505b60648310611e0e5760648381611e0457611e0361325d565b5b0492506002810190505b600a8310611e1d576001810190505b80915050919050565b6000604051905090565b600080fd5b600080fd5b60007fffffffff0000000000000000000000000000000000000000000000000000000082169050919050565b611e6f81611e3a565b8114611e7a57600080fd5b50565b600081359050611e8c81611e66565b92915050565b600060208284031215611ea857611ea7611e30565b5b6000611eb684828501611e7d565b91505092915050565b60008115159050919050565b611ed481611ebf565b82525050565b6000602082019050611eef6000830184611ecb565b92915050565b600081519050919050565b600082825260208201905092915050565b60005b83811015611f2f578082015181840152602081019050611f14565b60008484015250505050565b6000601f19601f8301169050919050565b6000611f5782611ef5565b611f618185611f00565b9350611f71818560208601611f11565b611f7a81611f3b565b840191505092915050565b60006020820190508181036000830152611f9f8184611f4c565b905092915050565b6000819050919050565b611fba81611fa7565b8114611fc557600080fd5b50565b600081359050611fd781611fb1565b92915050565b600060208284031215611ff357611ff2611e30565b5b600061200184828501611fc8565b91505092915050565b600073ffffffffffffffffffffffffffffffffffffffff82169050919050565b60006120358261200a565b9050919050565b6120458161202a565b82525050565b6000602082019050612060600083018461203c565b92915050565b61206f8161202a565b811461207a57600080fd5b50565b60008135905061208c81612066565b92915050565b600080604083850312156120a9576120a8611e30565b5b60006120b78582860161207d565b92505060206120c885828601611fc8565b9150509250929050565b6000806000606084860312156120eb576120ea611e30565b5b60006120f98682870161207d565b935050602061210a8682870161207d565b925050604061211b86828701611fc8565b9150509250925092565b60006020828403121561213b5761213a611e30565b5b60006121498482850161207d565b91505092915050565b600080fd5b600080fd5b7f4e487b7100000000000000000000000000000000000000000000000000000000600052604160045260246000fd5b61219482611f3b565b810181811067ffffffffffffffff821117156121b3576121b261215c565b5b80604052505050565b60006121c6611e26565b90506121d2828261218b565b919050565b600067ffffffffffffffff8211156121f2576121f161215c565b5b6121fb82611f3b565b9050602081019050919050565b82818337600083830152505050565b600061222a612225846121d7565b6121bc565b90508281526020810184848401111561224657612245612157565b5b612251848285612208565b509392505050565b600082601f83011261226e5761226d612152565b5b813561227e848260208601612217565b91505092915050565b600080600080600060a086880312156122a3576122a2611e30565b5b60006122b188828901611fc8565b95505060206122c288828901611fc8565b945050604086013567ffffffffffffffff8111156122e3576122e2611e35565b5b6122ef88828901612259565b935050606061230088828901611fc8565b925050608086013567ffffffffffffffff81111561232157612320611e35565b5b61232d88828901612259565b9150509295509295909350565b61234381611fa7565b82525050565b600060208201905061235e600083018461233a565b92915050565b61236d81611ebf565b811461237857600080fd5b50565b60008135905061238a81612364565b92915050565b600080604083850312156123a7576123a6611e30565b5b60006123b58582860161207d565b92505060206123c68582860161237b565b9150509250929050565b600067ffffffffffffffff8211156123eb576123ea61215c565b5b6123f482611f3b565b9050602081019050919050565b600061241461240f846123d0565b6121bc565b9050828152602081018484840111156124305761242f612157565b5b61243b848285612208565b509392505050565b600082601f83011261245857612457612152565b5b8135612468848260208601612401565b91505092915050565b6000806000806080858703121561248b5761248a611e30565b5b60006124998782880161207d565b94505060206124aa8782880161207d565b93505060406124bb87828801611fc8565b925050606085013567ffffffffffffffff8111156124dc576124db611e35565b5b6124e887828801612443565b91505092959194509250565b6000806040838503121561250b5761250a611e30565b5b60006125198582860161207d565b925050602061252a8582860161207d565b9150509250929050565b7f4e487b7100000000000000000000000000000000000000000000000000000000600052602260045260246000fd5b6000600282049050600182168061257b57607f821691505b60208210810361258e5761258d612534565b5b50919050565b7f4552433732313a20617070726f76616c20746f2063757272656e74206f776e6560008201527f7200000000000000000000000000000000000000000000000000000000000000602082015250565b60006125f0602183611f00565b91506125fb82612594565b604082019050919050565b6000602082019050818103600083015261261f816125e3565b9050919050565b7f4552433732313a20617070726f76652063616c6c6572206973206e6f7420746f60008201527f6b656e206f776e6572206f7220617070726f76656420666f7220616c6c000000602082015250565b6000612682603d83611f00565b915061268d82612626565b604082019050919050565b600060208201905081810360008301526126b181612675565b9050919050565b7f4552433732313a2063616c6c6572206973206e6f7420746f6b656e206f776e6560008201527f72206f7220617070726f76656400000000000000000000000000000000000000602082015250565b6000612714602d83611f00565b915061271f826126b8565b604082019050919050565b6000602082019050818103600083015261274381612707565b9050919050565b600060808201905061275f600083018761203c565b61276c602083018661233a565b612779604083018561233a565b818103606083015261278b8184611f4c565b905095945050505050565b7f4e487b7100000000000000000000000000000000000000000000000000000000600052601160045260246000fd5b60006127d082611fa7565b91506127db83611fa7565b92508282019050808211156127f3576127f2612796565b5b92915050565b600060408201905061280e600083018561203c565b61281b602083018461233a565b9392505050565b600061282d82611fa7565b91507fffffffffffffffffffffffffffffffffffffffffffffffffffffffffffffffff820361285f5761285e612796565b5b600182019050919050565b600060608201905061287f600083018661203c565b61288c602083018561233a565b818103604083015261289e8184611f4c565b9050949350505050565b7f4552433732313a20696e76616c696420746f6b656e2049440000000000000000600082015250565b60006128de601883611f00565b91506128e9826128a8565b602082019050919050565b6000602082019050818103600083015261290d816128d1565b9050919050565b7f4552433732313a2061646472657373207a65726f206973206e6f74206120766160008201527f6c6964206f776e65720000000000000000000000000000000000000000000000602082015250565b6000612970602983611f00565b915061297b82612914565b604082019050919050565b6000602082019050818103600083015261299f81612963565b9050919050565b600081905092915050565b60006129bc82611ef5565b6129c681856129a6565b93506129d6818560208601611f11565b80840191505092915050565b60006129ee82856129b1565b91506129fa82846129b1565b91508190509392505050565b7f4f776e61626c653a206e6577206f776e657220697320746865207a65726f206160008201527f6464726573730000000000000000000000000000000000000000000000000000602082015250565b6000612a62602683611f00565b9150612a6d82612a06565b604082019050919050565b60006020820190508181036000830152612a9181612a55565b9050919050565b7f4552433732313a207472616e736665722066726f6d20696e636f72726563742060008201527f6f776e6572000000000000000000000000000000000000000000000000000000602082015250565b6000612af4602583611f00565b9150612aff82612a98565b604082019050919050565b60006020820190508181036000830152612b2381612ae7565b9050919050565b7f4552433732313a207472616e7366657220746f20746865207a65726f2061646460008201527f7265737300000000000000000000000000000000000000000000000000000000602082015250565b6000612b86602483611f00565b9150612b9182612b2a565b604082019050919050565b60006020820190508181036000830152612bb581612b79565b9050919050565b7f4552433732313a206d696e7420746f20746865207a65726f2061646472657373600082015250565b6000612bf2602083611f00565b9150612bfd82612bbc565b602082019050919050565b60006020820190508181036000830152612c2181612be5565b9050919050565b7f4552433732313a20746f6b656e20616c7265616479206d696e74656400000000600082015250565b6000612c5e601c83611f00565b9150612c6982612c28565b602082019050919050565b60006020820190508181036000830152612c8d81612c51565b9050919050565b7f45524337323155524953746f726167653a2055524920736574206f66206e6f6e60008201527f6578697374656e7420746f6b656e000000000000000000000000000000000000602082015250565b6000612cf0602e83611f00565b9150612cfb82612c94565b604082019050919050565b60006020820190508181036000830152612d1f81612ce3565b9050919050565b60008190508160005260206000209050919050565b60006020601f8301049050919050565b600082821b905092915050565b600060088302612d887fffffffffffffffffffffffffffffffffffffffffffffffffffffffffffffffff82612d4b565b612d928683612d4b565b95508019841693508086168417925050509392505050565b6000819050919050565b6000612dcf612dca612dc584611fa7565b612daa565b611fa7565b9050919050565b6000819050919050565b612de983612db4565b612dfd612df582612dd6565b848454612d58565b825550505050565b600090565b612e12612e05565b612e1d818484612de0565b505050565b5b81811015612e4157612e36600082612e0a565b600181019050612e23565b5050565b601f821115612e8657612e5781612d26565b612e6084612d3b565b81016020851015612e6f578190505b612e83612e7b85612d3b565b830182612e22565b50505b505050565b600082821c905092915050565b6000612ea960001984600802612e8b565b1980831691505092915050565b6000612ec28383612e98565b9150826002028217905092915050565b612edb82611ef5565b67ffffffffffffffff811115612ef457612ef361215c565b5b612efe8254612563565b612f09828285612e45565b600060209050601f831160018114612f3c5760008415612f2a578287015190505b612f348582612eb6565b865550612f9c565b601f198416612f4a86612d26565b60005b82811015612f7257848901518255600182019150602085019450602081019050612f4d565b86831015612f8f5784890151612f8b601f891682612e98565b8355505b6001600288020188555050505b505050505050565b7f4f776e61626c653a2063616c6c6572206973206e6f7420746865206f776e6572600082015250565b6000612fda602083611f00565b9150612fe582612fa4565b602082019050919050565b6000602082019050818103600083015261300981612fcd565b9050919050565b7f4552433732313a20617070726f766520746f2063616c6c657200000000000000600082015250565b6000613046601983611f00565b915061305182613010565b602082019050919050565b6000602082019050818103600083015261307581613039565b9050919050565b7f4552433732313a207472616e7366657220746f206e6f6e20455243373231526560008201527f63656976657220696d706c656d656e7465720000000000000000000000000000602082015250565b60006130d8603283611f00565b91506130e38261307c565b604082019050919050565b60006020820190508181036000830152613107816130cb565b9050919050565b7f4572723a20546f6b656e20697320536f756c626f756e64000000000000000000600082015250565b6000613144601783611f00565b915061314f8261310e565b602082019050919050565b6000602082019050818103600083015261317381613137565b9050919050565b600081519050919050565b600082825260208201905092915050565b60006131a18261317a565b6131ab8185613185565b93506131bb818560208601611f11565b6131c481611f3b565b840191505092915050565b60006080820190506131e4600083018761203c565b6131f1602083018661203c565b6131fe604083018561233a565b81810360608301526132108184613196565b905095945050505050565b60008151905061322a81611e66565b92915050565b60006020828403121561324657613245611e30565b5b60006132548482850161321b565b91505092915050565b7f4e487b7100000000000000000000000000000000000000000000000000000000600052601260045260246000fdfea264697066735822122045ec34cc1bda86ac7e8e6f3e2a6ed49f89c7fbacf725b78c8a673adb2fd7d20364736f6c63430008130033",
  "linkReferences": {},
  "deployedLinkReferences": {}
}